:060000000A128A110C280F
:10000800FE00030EF0000A08F1000A128A11692D99
:100018000A128A110F2883136130FD000530FE0093
:10002800E030FF005A3084000A128A11A0250A1213
:100038008A113E3084005A300A128A11D8250A12D1
:100048008A1183010A128A11472D0A128A118725FB
:100058000A128A11750883120313B5007408B400D4
:100068007308B3007208B2005308031D3C283D28EA
:10007800B6285808031D41284228B6285508031DEC
:1000880046284728B6283208AE003308AF0034089F
:10009800B0003508B1004608AE024708031C470FF8
:1000A80056285728AF024808031C480F5C285D28CB
:1000B800B0024908031C490F62286328B1023108BD
:1000C800031D75283008031D752801302F02031DF4
:1000D80071282C302E02031D7128031C74287528E2
:1000E800B628831203133508C9003408C80033083A
:1000F800C7003208C6005208013E0339D200A828BA
:100108000330F20047300A128A11A2240A128A1117
:10011800B6280330F20044300A128A11A2240A12C7
:100128008A11B6280330F20041300A128A11A2243B
:100138000A128A11B6280330F2003E300A128A11D8
:10014800A2240A128A11B6285208003A03198428F0
:10015800013A03198D28033A03199628013A03191D
:100168009F28B628831203135508031DBC28BD28F1
:100178000829F8280330A0000030A4000030A300AC
:100188000130A200F430A1003B300A128A118F23FB
:100198000A128A110530831203135702031CD5284B
:1001A800D6280829D701D301D501D50A0829033053
:1001B800A0000030A4000030A3000130A200F430F9
:1001C800A10038300A128A118F230A128A110530C9
:1001D800831203135702031CF228F3280829D701B6
:1001E800D3010230D50008295308AE00AF012F080B
:1001F800003A0319002908292E08013A0319BE28D4
:10020800033A0319DB2808295503031D0C290D2976
:1002180017295308031D1129122917290A128A11AF
:10022800CF250A128A110230831203135506031DC3
:100238001E291F2929295308031D2329242929296F
:100248000A128A11CF250A128A1103308312031366
:100258005306031D3029312953290330A0000030EB
:10026800A4000030A3000130A200F430A100353012
:100278000A128A118F230A128A1105308312031376
:100288005702031C482949295329D701D301580883
:1002980003194F295129013052290030D80008008C
:1002A80083120313861859295A2991295808031DBE
:1002B8005E295F2991291A30FB00F830FA00FA0B01
:1002C8006329FB0B632900008312031386186D2929
:1002D8006E2991295808031D722973299129D30180
:1002E800D30AD401550803197A297B2986290A12C9
:1002F8008A11F8240A128A1186290A128A11A4225C
:100308000A128A118312031386188B298C299129C2
:1003180058080319902991298129061994299529A2
:10032800CD295808031D99299A29CD291A30FB008F
:10033800F830FA00FA0B9E29FB0B9E290000831265
:1003480003130619A829A929CD295808031DAD2981
:10035800AE29CD290230D300D401D40A5508031997
:10036800B629B729C2290A128A11CE240A128A117B
:10037800C2290A128A11A4220A128A1183120313AB
:100388000619C729C829CD2958080319CC29CD2908
:10039800BD290618D029D129FC291A30FB00F830CC
:1003A800FA00FA0BD529FB0BD52900008312031399
:1003B8000618DF29E029FC295808031DE429E52946
:1003C800E8290330D300F62958080319EC29EE2947
:1003D8000130EF290030D800F6290A128A11A42228
:1003E8000A128A1183120313061CFB29FC29F1291E
:1003F80008008312031387010030AF000030AE00FD
:100408000030AD000030AC00B5019E2A0A128A11F6
:10041800A4220A128A110A128A1187250A128A113D
:10042800750883120313B4007408B3007308B2008C
:100438007208B1003108A8003208A9003308AA00E0
:100448003408AB002C08A8022D08031C2D0F2D2AF8
:100458002E2AA9022E08031C2E0F332A342AAA0298
:100468002F08031C2F0F392A3A2AAB022B08031D29
:100478004C2A2A08031D4C2A01302902031D482A48
:10048800F4302802031D482A031C4B2A4C2A702AE0
:10049800831203133408AF003308AE003208AD00EE
:1004A8003108AC00350803195A2A5C2A01305D2A44
:1004B8000030B50035030319622A632A662A2C30F6
:1004C800B000682A2F30B0000430F20030080A1259
:1004D8008A11A2240A128A11831203130618752A94
:1004E800762A9E2A1A3083120313A900F730A8002F
:1004F800A80B7C2AA90B7C2A812A831203130618CD
:10050800862A872A9E2AD801D50107108710E0017C
:10051800E00AD6010830DF00DE01DE0A982A0A1256
:100528008A11A4220A128A1183120313061C9D2A17
:100538009E2A932A58030319A22AA32A0A2A0800E2
:100548000A128A1187250A128A1175088312031361
:10055800A7007408A6007308A5007208A400240860
:10056800A0002508A1002608A2002708A3004A0821
:10057800A0024B08031C4B0FC22AC32AA1024C0835
:10058800031C4C0FC82AC92AA2024D08031C4D0F90
:10059800CE2ACF2AA3022308031DE02A2208031D1E
:1005A800E02A2108031DE02A05302002031DDC2A69
:1005B800031CDF2AE02A192B831203132708CD0016
:1005C8002608CC002508CB002408CA00FF30850087
:1005D80059085A3E840083130008013E84000A1219
:1005E8008A1153240A128A1188000130A000590A7E
:1005F800FF2A0310A00DFF3E031DFD2A2008FF3A25
:1006080085000330F2000030F3005908013EF40081
:10061800003003180130F5000A128A11FA230A1271
:100628008A11720883120313D90008000A128A116A
:1006380087250A128A11750883120313BD007408EE
:10064800BC007308BB007208BA006008031D2D2B9C
:100658002E2B2F2B8E2B3A08B6003B08B7003C08F0
:10066800B8003D08B9003E08B6023F08031C3F0F1A
:100678003E2B3F2BB7024008031C400F442B452B51
:10068800B8024108031C410F4A2B4B2BB902390809
:10069800031D5D2B3808031D5D2B03303702031D36
:1006A800592BE8303602031D592B031C5C2B5D2B9C
:1006B8008E2B831203133D08C1003C08C0003B0881
:1006C800BF003A08BE00560803196B2B6C2B6F2B22
:1006D8000130D602892B5F080319732B742B792BF1
:1006E8000130DF020930D600892B5E0803197D2B03
:1006F8007E2B832B0130DE020930DF00892BE001DD
:100708000A128A11FD210A128A110A128A11CF25AA
:100718000A128A11080083120313AD000A128A1103
:1007280087250A128A11750883120313AC0074080E
:10073800AB007308AA007208A9002908A5002A08B6
:10074800A6002B08A7002C08A8004208A502430809
:10075800031C430FB02BB12BA6024408031C440F03
:10076800B62BB72BA7024508031C450FBC2BBD2B86
:10077800A80224082802031DCB2B23082702031DE7
:10078800CB2B22082602031DCB2B21082502031C94
:10079800CE2BCF2BF92B2C08C5002B08C4002A0818
:1007A800C3002908C2005D080319DB2BDD2B0130CB
:1007B800DE2B0030DD000130FF007F08D7075D0821
:1007C8000319E72BE82BF12B2008F2002D080A1259
:1007D8008A11A2240A128A11F92B0330F20032304E
:1007E8000A128A11A2240A128A110800F701F51FB9
:1007F800FE2BFF2B062CF409F509F40A0319F50A58
:10080800F701F70AF31F092C0A2C0F2CF209F30938
:10081800F20A0319F30A720873040319142C152C2D
:10082800442CF601F60A232C01300310F20DF30DC7
:10083800FF3E031D192C0130FF007F08F607F31F48
:10084800262C272C182C73087502031D2D2C7208D2
:100858007402031C302C312C372C7208F4027308F4
:10086800031CF503F50201300310F30CF20CFF3EF4
:10087800031D382C0130F602031D432C442C272C71
:1008880077080319482C492C4E2CF409F509F40A69
:100898000319F50A7508F3007408F200080004301B
:1008A8008A000408840A82070034C034F934A43466
:1008B800B034993492348234F834803490348834A3
:1008C8008334C634A13486348E34C2348934CF3468
:1008D800E1348934C734C834AB34C0348C349834E8
:1008E800AF3492348734C134C134D5348934913427
:1008F800A434BF347F349C34FF34FE34F734F934E5
:1009080027342734273418340F340F342734273446
:10091800273427341834173419340534003419347B
:10092800033405341234273427342834283428343F
:10093800273427342A34293429342934F700F80194
:1009480072087802031CA92CAA2CAF2C2730F500BA
:100958000030F600BD2C7808770784000A128A1147
:1009680053240A128A11F300F4017308F50074087D
:10097800F60078085A3E8400750883138000013019
:10098800FF007F08F80703307802031CCC2CCD2C1D
:10099800A42C08008312031356080319D42CD52C51
:1009A800D82C0130D602F22C5F080319DC2CDD2C80
:1009B800E22C0130DF020930D600F22C5E08031960
:1009C800E62CE72CEC2C0130DE020930DF00F22C9B
:1009D800E0010A128A11FD210A128A110A128A11EB
:1009E800CF250A128A1108000130FF007F08831200
:1009F8000313D6070A305602031C032D042D1B2DA2
:100A0800D6010130FF007F08DF070A305F02031CB0
:100A18000E2D0F2D1B2DDF010130FF007F08DE0793
:100A28000A305E02031C192D1A2D1B2DDE010A1235
:100A38008A11CF250A128A1108008312031358035A
:100A4800031D272D282D442D342D071487100A1235
:100A58008A111A230A128A11462D071087142B2D82
:100A68005408FA00FB017B08003A03193C2D462D77
:100A78007A08003A0319292D013A0319312D462D18
:100A88008710071008000A128A11AF250A128A1166
:100A98000A128A11C0250A128A110A128A11A4227E
:100AA8000A128A110A128A1129200A128A110A12B4
:100AB8008A1154210A128A110A128A1121250A124E
:100AC8008A11512D0A128A110C280B1D6C2D6D2DBF
:100AD800802D0B1183308312031381000130CE0760
:100AE800003003180130CF07003003180130D00759
:100AF800003003180130D10771088A00700E830096
:100B0800FE0E7E0E09008B13831203135108F900A1
:100B18005008F8004F08F7004E08F6008B177908C0
:100B2800F5007808F4007708F3007608F20008006A
:100B38007E088A007F0882000A128A119C250A1200
:100B48008A118000840A04087D0603190034FF0A0C
:100B58000319FE0AA02D8316031385018801870156
:100B68008113FF3086000730831203138500FF309E
:100B78008800860187010800831603130108F839E5
:100B880002388100811181128B178B1683308312F2
:100B9800031381000800831203135E08DA005F085C
:100BA800DB005608DC00080064008001840A0406A3
:100BB800031900340406D92D18340F340F340134C6
:060BC80001340834013481
:02400E00393F38
:00000001FF
