:060000000A128A110C280F
:10000800FE00030EF0000A08F1000A128A11832C80
:100018000A128A110F28F801F9018313203084008D
:100028004C300A128A11B4240A128A1183010A1266
:100038008A111E280A128A115A240A128A11831256
:1000480003138618282829287B287908031D2D28BA
:100058002E287B281A3083120313D100F730D000E2
:10006800D00B3428D10B342839288312031386186F
:100078003E283F287B287908031D432844287B28ED
:10008800FF30C2070318C30AFF30C3077808031DEF
:100098004E284F285928C801C9010230C60000302F
:1000A800C7000130C4000030C500023078060319CB
:1000B8005E285F287028F801F80ACA01CA0A702861
:1000C800F201F20A0230F3000330F40000300A12A1
:1000D8008A114C230A128A11831203138618752871
:1000E80076287B28790803197A287B28642806193A
:1000F8007E287F28D0287908031D83288428D028C3
:100108001A3083120313D100F730D000D00B8A289D
:10011800D10B8A288F28831203130619942895284F
:10012800D0287908031D99289A28D0280130C207B9
:100138000318C30A0030C3077808031DA428A5289C
:10014800AF28C801C9010430C6000030C70001301B
:10015800C4000030C50078030319B328B428C528A3
:100168000230F8000230CA00C528F201F20A023053
:10017800F3000330F40000300A128A114C230A12EB
:100188008A11831203130619CA28CB28D0287908A4
:100198000319CF28D028B9280618D328D42800292D
:1001A8001A3083120313D100F730D000D00BDA28AD
:1001B800D10BDA28DF28831203130618E428E52870
:1001C800002979080319E928EB280130EC280030C8
:1001D800F900FA28F201F20A0230F3000330F400C1
:1001E80000300A128A114C230A128A11831203134F
:1001F800061CFF280029EE287903031D0429052978
:100208000F294A08031909290A290F290A128A11EC
:10021800C9210A128A117903031D132914291C29DB
:100228007803031D182919291C298312031309149B
:100238007903031D202921292A2902307806031D64
:10024800262927292A298312031389147908031DCB
:100258002E292F29332983120313091089107903B2
:10026800031D372938297D29831203133808D00044
:100278003908D1003A08D2003B08D3003408D0022C
:100288003508031C350F49294A29D1023608031CB1
:10029800360F4F295029D2023708031C370F55292A
:1002A8005629D3025308031D68295208031D6829DB
:1002B80003305102031D6429E8305002031D6429EC
:1002C800031C672968297D29831203133B08B7009B
:1002D8003A08B6003908B5003808B400FF30C2073C
:1002E8000318C30AFF30C3070A128A1126240A1208
:1002F8008A11790803198129822987297803031D1E
:10030800862987298C290A128A1126240A128A1119
:100318007908031990299129972902307806031D35
:10032800962997299C290A128A11E0230A128A1110
:100338008312031348084904031DA329A429B929D2
:1003480046084704031DA929AA29B92944084504D0
:10035800031DAF29B029B92909108910F8010A121B
:100368008A11C9210A128A112328F201F20A0230DD
:10037800F3000330F40000300A128A114C230A12E9
:100388008A1123280A128A110C2883120313490898
:10039800C1004808C0004708BF004608BE0045081D
:1003A800BD004408BC002A2B0230C8000030C90038
:1003B8000230C6000030C700C401C501F201F20ACC
:1003C8000230F3000330F40001300A128A114C2382
:1003D8000A128A113D2B3B08A3003A08A2003908EB
:1003E800A1003808A0000D2A053083120313C800A5
:1003F8000030C9000330C6000030C700F201F20A1D
:100408000230F300F40100300A128A114C230A1258
:100418008A11831203133808CC003908CD003A0832
:10042800CE003B08CF002008CC022108031C210F76
:100438001E2A1F2ACD022208031C220F242A252A3D
:10044800CE022308031C230F2A2A2B2ACF024F0887
:10045800031D3D2A4E08031D3D2A03304D02031D8E
:10046800392AE9304C02031D392A031C3C2A3D2A4B
:10047800F829831203133B08A7003A08A600390895
:10048800A5003808A4005B2A013083120313C800B2
:100498000030C900C601C701F201F20A0230F300B8
:1004A800F40101300A128A114C230A128A118312AC
:1004B80003133808CC003908CD003A08CE003B08B1
:1004C800CF002408CC022508031C250F6C2A6D2AAE
:1004D800CD022608031C260F722A732ACE0227088B
:1004E800031C270F782A792ACF024F08031D8B2A6D
:1004F8004E08031D8B2A03304D02031D872AE9305D
:100508004C02031D872A031C8A2A8B2A482A831235
:100518000313CA013D2B3B08AB003A08AA0039086F
:10052800A9003808A800AB2A83120313C801C9011F
:100538000530C6000030C700F201F20A0230F300AD
:10054800F40100300A128A114C230A128A1183120C
:1005580003133808CC003908CD003A08CE003B0810
:10056800CF002808CC022908031C290FBC2ABD2A61
:10057800CD022A08031C2A0FC22AC32ACE022B083E
:10058800031C2B0FC82AC92ACF024F08031DDB2AD8
:100598004E08031DDB2A03304D02031DD72AE9301C
:1005A8004C02031DD72A031CDA2ADB2A982A831255
:1005B80003133B08AF003A08AE003908AD0038080D
:1005C800AC00F92A013083120313C8000030C900B7
:1005D800C601C701F201F20A0230F300F40101304A
:1005E8000A128A114C230A128A118312031338083B
:1005F800CC003908CD003A08CE003B08CF002C08C3
:10060800CC022D08031C2D0F0A2B0B2BCD022E0814
:10061800031C2E0F102B112BCE022F08031C2F0F9B
:10062800162B172BCF024F08031D292B4E08031D2D
:10063800292B03304D02031D252BE9304C02031DE5
:10064800252B031C282B292BE62A8B2A4A08CC00A9
:10065800CD014D08003A0319322B3D2B4C08003AC6
:100668000319D829013A0319EF29033A03198F2AE4
:100678003D2B831203134108C9004008C8003F08F6
:10068800C7003E08C6003D08C5003C08C400080075
:10069800F7007203031D512B522B752BFF30831269
:1006A800031385006B2B4808013E84000A128A1147
:1006B800A1240A128A118800732B48080B3E840073
:1006C8000A128A11A1240A128A118800732B77084A
:1006D800003A0319572B013A0319612B732BFE308B
:1006E80085000730F6007D30F500F50B792BF60B09
:1006F800792B02307306031D822B832BA62BFF3028
:100708008312031385009C2B4608013E84000A12BD
:100718008A11A1240A128A118800A42B46080B3ECC
:1007280084000A128A11A1240A128A118800A42BB3
:100738007708003A0319882B013A0319922BA42B46
:10074800FD3085000730F6007D30F500F50BAA2B4B
:10075800F60BAA2B03307406031DB32BB42BD72B2F
:10076800FF30831203138500CD2B4408013E84001B
:100778000A128A11A1240A128A118800D52B44086A
:100788000B3E84000A128A11A1240A128A118800D9
:10079800D52B7708003A0319B92B013A0319C32B53
:1007A800D52BFB3085000730F6007D30F500F50BC2
:1007B800DB2BF60BDB2B0800831203134308C9005D
:1007C8004208C8004308803AFF0080307F02031DBA
:1007D800EF2B0A304202031CF22BF32B252C01309D
:1007E80083120313C6070318C70A0030C707C201DC
:1007F800C3014708803AFF0080307F02031D062CA2
:100808000A304602031C092C0A2C252C01308312BD
:100818000313C4070318C50A0030C507C601C7017A
:100828004508803AFF0080307F02031D1D2C0A30E6
:100838004402031C202C212C252C83120313C401F1
:10084800C5010800831203134308C9004208C80001
:10085800C91F2F2C302C592C0930C2000030C3007E
:100868004308C9004208C800FF30C6070318C70A72
:10087800FF30C707C71F412C422C592C0930C6002E
:100888000030C700FF30C4070318C50AFF30C5078A
:10089800C51F4F2C502C592CC401C501C801C901D2
:1008A800C201C301C601C701F90108008316031379
:1008B80085018312031385018316031389018312AB
:1008C80003138901FF308316031386008312031371
:1008D8008601831603138801831203138801831684
:1008E800031381130108F83902388100811181123C
:1008F8008B178B16833083120313810008000B1D9E
:10090800862C872C9A2C0B118330831203138100B9
:100918000130B807003003180130B9070030031858
:100928000130BA07003003180130BB0771088A008C
:10093800700E8300FE0E7E0E090004308A00040843
:10094800840A82070034C034F934A434B0349934AA
:1009580092348234F83480349034A334AB348E34F7
:1009680064008001840A0406031900340406B52CC7
:02400E00393F38
:00000001FF
