:060000000A128A110C280F
:10000800FE00030EF0000A08F1000A128A11962D6C
:100018000A128A110F2883136130FD000630FE0092
:100028001D30FF005A3084000A128A11CD250A12A9
:100038008A113E3084005A300A128A1115260A1293
:100048008A1183010A128A11742D0A128A11B425A1
:100058000A128A11750883120313B5007408B400D4
:100068007308B3007208B2005308031D3C283D28EA
:10007800D1285808031D41284228D1285508031DB6
:1000880046284728D1283208AE003308AF00340884
:10009800B0003508B1004608AE024708031C470FF8
:1000A80056285728AF024808031C480F5C285D28CB
:1000B800B0024908031C490F62286328B1023108BD
:1000C800031D74283008031D74282F08031D742885
:1000D800C8302E02031D7028031C73287428D128E9
:1000E800831203133508C9003408C8003308C70051
:1000F8003208C6000530F2000030F3005208013E15
:10010800F400003003180130F5000A128A11202487
:100118000A128A11720883120313D200C02803300E
:10012800F2004F300A128A11D0240A128A11D128FB
:100138000330F2004C300A128A11D0240A128A11B4
:10014800D1280330F20049300A128A11D0240A1249
:100158008A11D1280330F20046300A128A11D024BD
:100168000A128A11D1280330F20043300A128A1188
:10017800D0240A128A11D1285208003A0319932868
:10018800013A03199C28033A0319A528013A0319CF
:10019800AE28073A0319B728D12883120313550844
:1001A800031DD728D828232913290330A00000309D
:1001B800A4000030A3000130A200F430A1004030B8
:1001C8000A128A11B5230A128A1105308312031301
:1001D8005702031CF028F1282329D701D301D501A0
:1001E800D50A23290330A0000030A4000030A30062
:1001F8000130A200F430A1003D300A128A11B52363
:100208000A128A110530831203135702031C0D29A1
:100218000E292329D701D3010230D50023295308F9
:10022800AE00AF012F08003A03191B2923292E0815
:10023800013A0319D928033A0319F6282329550343
:10024800031D2729282932295308031D2C292D2964
:1002580032290A128A110C260A128A1102308312D4
:1002680003135506031D39293A2944295308031D48
:100278003E293F2944290A128A110C260A128A119A
:100288000330831203135306031D4B294C296E298F
:100298000330A0000030A4000030A3000130A20009
:1002A800F430A1003A300A128A11B5230A128A11D1
:1002B8000530831203135702031C632964296E292E
:1002C800D701D301580803196A296C2901306D290F
:1002D8000030D80008008312031386187429752982
:1002E800B3295808031D79297A29B3291A30FB0044
:1002F800F830FA00FA0B7E29FB0B7E2900008312E6
:100308000313861888298929B3295808031D8D29BC
:100318008E29B32902305406031993299429982960
:10032800D401D40AD301D30A550803199C299D295D
:10033800A8290A128A11FC240A128A11A8290A1269
:100348008A11CA220A128A11831203138618AD2948
:10035800AE29B32958080319B229B329A3290619C4
:10036800B629B729F4295808031DBB29BC29F42943
:100378001A30FB00F830FA00FA0BC029FB0BC02931
:100388000000831203130619CA29CB29F429580837
:10039800031DCF29D029F42954030319D429D529B9
:1003A800D9290230D4000230D30055080319DD29B9
:1003B800DE29E9290A128A1125250A128A11E92952
:1003C8000A128A11CA220A128A1183120313061901
:1003D800EE29EF29F42958080319F329F429E42907
:1003E8000618F729F829282A54080319FC29FD2991
:1003F800282A1A30FB00F830FA00FA0B012AFB0B06
:10040800012A00008312031306180B2A0C2A282A33
:100418005808031D102A112A142A0330D300222A4F
:1004280058080319182A1A2A01301B2A0030D80044
:10043800222A0A128A11CA220A128A118312031363
:10044800061C272A282A1D2A08008312031387015D
:100458000030AF000030AE000030AD000030AC001E
:10046800B501C42A0A128A11CA220A128A110A126A
:100478008A11B4250A128A11750883120313B4006D
:100488007408B3007308B2007208B1003108A800FC
:100498003208A9003308AA003408AB002C08A802C7
:1004A8002D08031C2D0F592A5A2AA9022E08031CAD
:1004B8002E0F5F2A602AAA022F08031C2F0F652A15
:1004C800662AAB022B08031D782A2A08031D782AFE
:1004D80001302902031D742AF4302802031D742AEE
:1004E800031C772A782A9C2A831203133408AF0046
:1004F8003308AE003208AD003108AC0035080319E6
:10050800862A882A0130892A0030B5003503031964
:100518008E2A8F2A922A3130B000942A3430B000C3
:100528000430F20030080A128A11D0240A128A1103
:10053800831203130618A12AA22AC42A1A30831286
:100548000313A900F730A800A80BA82AA90BA82A0A
:10055800AD2A831203130618B22AB32AC42A0A1230
:100568008A11ED250A128A11BE2A0A128A11CA2294
:100578000A128A1183120313061CC32AC42AB92A31
:1005880058030319C82AC92A362A08000A128A11E8
:10059800B4250A128A11750883120313A700740878
:1005A800A6007308A5007208A4002408A000250866
:1005B800A1002608A2002708A3004A08A0024B08A9
:1005C800031C4B0FE82AE92AA1024C08031C4C0F14
:1005D800EE2AEF2AA2024D08031C4D0FF42AF52A31
:1005E800A3022308031D062B2208031D062B21083E
:1005F800031D062B05302002031D022B031C052BAF
:10060800062B3F2B831203132708CD002608CC00A6
:100618002508CB002408CA00FF30850059085A3E37
:10062800840083130008013E84000A128A11792489
:100638000A128A1188000130A000590A252B0310DC
:10064800A00DFF3E031D232B2008FF3A8500033031
:10065800F2000030F3005908013EF400003003189E
:100668000130F5000A128A1120240A128A11720830
:1006780083120313D90008000A128A11B4250A123A
:100688008A11750883120313BD007408BC0073082F
:10069800BB007208BA006008031D532B542B552B5E
:1006A800B42B3A08B6003B08B7003C08B8003D0830
:1006B800B9003E08B6023F08031C3F0F642B652BA8
:1006C800B7024008031C400F6A2B6B2BB802410885
:1006D800031C410F702B712BB9023908031D832BA2
:1006E8003808031D832B03303702031D7F2BE830A6
:1006F8003602031D7F2B031C822B832BB42B831202
:1007080003133D08C1003C08C0003B08BF003A087D
:10071800BE0056080319912B922B952B0130D60257
:10072800AF2B5F080319992B9A2B9F2B0130DF02FF
:100738000930D600AF2B5E080319A32BA42BA92BD5
:100748000130DE020930DF00AF2BE0010A128A1106
:1007580029220A128A110A128A110C260A128A11EF
:10076800080083120313AD000A128A11B4250A1275
:100778008A11750883120313AC007408AB00730860
:10078800AA007208A9002908A5002A08A6002B08B3
:10079800A7002C08A8004208A5024308031C430F21
:1007A800D62BD72BA6024408031C440FDC2BDD2BC9
:1007B800A7024508031C450FE22BE32BA8022408D7
:1007C8002802031DF12B23082702031DF12B220801
:1007D8002602031DF12B21082502031CF42BF52BFF
:1007E8001F2C2C08C5002B08C4002A08C3002908A0
:1007F800C2005D080319012C032C0130042C0030C1
:10080800DD000130FF007F08D7075D0803190D2CB4
:100818000E2C172C2008F2002D080A128A11D02459
:100828000A128A111F2C0330F20037300A128A117B
:10083800D0240A128A110800F701F51F242C252C50
:100848002C2CF409F509F40A0319F50AF701F70A3B
:10085800F31F2F2C302C352CF209F309F20A031957
:10086800F30A7208730403193A2C3B2C6A2CF6011C
:10087800F60A492C01300310F20DF30DFF3E031D5B
:100888003F2C0130FF007F08F607F31F4C2C4D2C3E
:100898003E2C73087502031D532C72087402031C46
:1008A800562C572C5D2C7208F4027308031CF503B0
:1008B800F50201300310F30CF20CFF3E031D5E2C11
:1008C8000130F602031D692C6A2C4D2C7708031998
:1008D8006E2C6F2C742CF409F509F40A0319F50A27
:1008E8007508F3007408F200080004308A00040850
:1008F800840A82070034C034F934A434B0349934FB
:1009080092348234F8348034903488348334C63452
:10091800A13486348E34C2348934CF34E1348934F6
:10092800C734C834AB34C0348C349834AF349234C0
:100938008734C134C134D53489349134A434BF34B4
:100948007F349C34FF34FE34F734F934E734FC3414
:10095800DE34F334F63427342734273418340F348C
:100968000F342734273427342734183417341934EC
:100978000534003419340334053429342F34283429
:100988002B3427342C34123427342A342D3427348A
:100998002E3428342F342934F700F80172087802ED
:1009A800031CD72CD82CDD2C2730F5000030F6009E
:1009B800EB2C7808770784000A128A1179240A1226
:1009C8008A11F300F4017308F5007408F60078083A
:1009D8005A3E84007508831380000130FF007F08A9
:1009E800F80703307802031CFA2CFB2CD22C0800E1
:1009F8000130FF007F0883120313D6070A3056021E
:100A0800031C072D082D1F2DD6010130FF007F087C
:100A1800DF070A305F02031C122D132D1F2DDF0183
:100A28000130FF007F08DE070A305E02031C1D2D1F
:100A38001E2D1F2DDE010A128A110C260A128A1198
:100A4800080083120313560803192B2D2C2D2F2D64
:100A58000130D602482D5F080319332D342D392D66
:100A68000130DF020930D600482D5E0803193D2DFC
:100A78003E2D432D0130DE020930DF00482D0A12D9
:100A88008A11ED250A128A110A128A110C260A12F5
:100A98008A110800831203135803031D542D552D82
:100AA800712D612D071487100A128A1140230A122A
:100AB8008A11732D07108714582D5408FA00FB016A
:100AC8007B08003A0319692D732D7A08013A031936
:100AD800562D033A03195E2D732D87100710080051
:100AE8000A128A11DC250A128A110A128A11FD25B6
:100AF8000A128A110A128A11CA220A128A110A12C1
:100B08008A1129200A128A110A128A116F210A12DF
:100B18008A110A128A114E250A128A117E2D0A128A
:100B28008A110C280B1D992D9A2DAD2D0B11833090
:100B38008312031381000130CE07003003180130FF
:100B4800CF07003003180130D007003003180130F8
:100B5800D10771088A00700E8300FE0E7E0E090010
:100B68008B13831203135108F9005008F8004F083B
:100B7800F7004E08F6008B177908F5007808F4009E
:100B88007708F3007608F20008007E088A007F08DC
:100B980082000A128A11C9250A128A118000840A61
:100BA80004087D0603190034FF0A0319FE0ACD2D37
:100BB800831603138501880187018113FF3086009E
:100BC8000730831203138500FF30880086018701F0
:100BD8000800831203138701D801D501D401071037
:100BE8008710E001E00AD6010830DF00DE01DE0AE6
:100BF8000800831603130108F839023881008111AF
:100C080081128B178B16833083120313810008001F
:100C1800831203135E08DA005F08DB005608DC0065
:100C2800080064008001840A0406031900340406DD
:100C3800162E18340F340F340134013408340134BB
:02400E00393F38
:00000001FF
