:060000000A128A110C280F
:10000800FE00030EF0000A08F1000A128A112F29D7
:100018000A128A110F280A128A118D210A128A11CE
:10002800B1000A128A118E210A128A11B2000A122C
:100038008A118F210A128A11B300AC01AD01AE01F9
:10004800AF01B001F801F901FA01FB0183010A12BD
:100058008A1162290A128A114D210A128A11750819
:1000680083120313AB007408AA007308A90072086E
:10007800A8002808A4002908A5002A08A6002B081B
:10008800A7002C08A4022D08031C2D0F4C284D286E
:10009800A5022E08031C2E0F52285328A6022F084B
:1000A800031C2F0F58285928A7022708031D6A2860
:1000B8002608031D6A282508031D6A28053024021E
:1000C800031D6628031C69286A28A72883120313BE
:1000D8002B08AF002A08AE002908AD002808AC009C
:1000E800F030FF007F0885053008313E8400831317
:1000F8000008013E84000A128A1101210A128A119D
:1001080088000130A400300A8B280310A40DFF3E9C
:10011800031D89282408FF3AFF007F08850403305F
:10012800F2000030F3003008013EF40000300318FC
:100138000130F5000A128A11A8200A128A117208E1
:1001480083120313B0000800F701F51FAC28AD288F
:10015800B428F409F509F40A0319F50AF701F70AAE
:10016800F31FB728B828BD28F209F309F20A0319C2
:10017800F30A720873040319C228C328F228F60187
:10018800F60AD12801300310F20DF30DFF3E031DCE
:10019800C7280130FF007F08F607F31FD428D528A9
:1001A800C62873087502031DDB2872087402031C35
:1001B800DE28DF28E5287208F4027308031CF5031B
:1001C800F50201300310F30CF20CFF3E031DE62884
:1001D8000130F602031DF128F228D5287708031903
:1001E800F628F728FC28F409F509F40A0319F50A92
:1001F8007508F3007408F200080001308A0004084A
:10020800840A82070034C034F934A434B0349934F1
:1002180092348234F8348034903488348334C63449
:10022800A13486348E34C2348934CF34E1348934ED
:10023800C734C834AB34C0348C349834AF349234B7
:100248008734C134C134D53489349134A434BF34AB
:100258007F349C34FF340B1D3229332946290B1176
:1002680083308312031381000130F807003003182C
:100278000130F907003003180130FA07003003187D
:100288000130FB0771088A00700E8300FE0E7E0E97
:1002980009008B137B0883120313A3007A08A200BA
:1002A8007908A1007808A0008B172308F500220818
:1002B800F4002108F3002008F20008000A128A114D
:1002C80084210A128A110A128A1175210A128A11C6
:1002D8000A128A112E200A128A116C290A128A110E
:1002E8000C28831603130108F8390238810081119C
:1002F80081128B178B168330831203138100080039
:10030800831603138501880183120313850188016D
:080318000800243424342434CD
:02400E00393F38
:00000001FF
